:100000001CC040C03FC03EC037C73CC03BC03AC028
:1000100039C038C037C036C035C034C033C0010223
:1000200004081020010101010101003600380037E9
:1000300056068D09010A360A6D0A11241FBECFE546
:10004000D2E0DEBFCDBF11E0A0E6B0E0E0EBF6E12C
:1000500002C005900D92A431B107D9F721E0A4E1C7
:10006000B1E001C01D92AB3BB207E1F710E0CAE37B
:10007000D0E003C02297FE01E7DAC033D107D1F701
:1000800044D814CBBDCF10926600089581E08093D0
:1000900066000895EF92FF920F931F9340ED57E093
:1000A00060E070E08FE691E02BD620E032EC41E09A
:1000B00050E06FEA71E08FE691E034D68FE691E090
:1000C0001DD66BE670E08091A0019091A10160D8EF
:1000D0006AE070E080E090E049D741E060E08FE6C0
:1000E00091E0B0D660E084E07ED761E083E07BD72A
:1000F00080E1E82EF12C02E010E02BE030E040E05F
:1001000050E061E270E086E190E0F5D103E410E0B8
:1001100020E030E04FE050E066E070E08BE291E0FC
:1001200055D506E410E020E030E04FE050E062E119
:1001300070E08BE291E04AD51F910F91FF90EF9014
:100140000895682F83E087C780916600882341F077
:1001500084E0B0D721E0892B09F420E0822F01C090
:1001600080E0EFDF4AE050E060E070E08BE291E099
:10017000AAC42F923F924F925F926F927F928F927A
:100180009F92AF92BF92CF92DF92EF92FF920F9326
:100190001F93CF93DF93CDB7DEB728970FB6F894B0
:1001A000DEBF0FBECDBF1C01DC011696AC906A2DE0
:1001B00070E080E090E020E833E341EE51E0DCD9EC
:1001C000422E532E642E752E22EB37E0B12CE4E63E
:1001D000F0E000E911E0C901825B97408A159B05B8
:1001E000CCF4C90183709927892B89F4C901BF0117
:1001F0008CD9892B29F4C901B80187D9892B39F405
:10020000B0E84B0EB1E55B1EB1E06B1E711C2F5FB9
:100210003F4FE1CFF1018580912CFEE4AF1AF8EF5A
:10022000BF0AC50164E670E070D97C01C50160E9D0
:1002300071E06BD96C0101E010E083E0A822BB24DF
:10024000081519059CF50230110589F4A114B104B3
:1002500071F4E114F10419F4C114D10441F490E8EB
:10026000490E9BE3591E96E2691E711C1CC0F801E1
:10027000E458FF4F608170E080E090E020E831E5D5
:1002800041E050E079D929833A834B835C836D83C5
:100290007E838F83988789819A81AB81BC81480E48
:1002A000591E6A1E7B1E0F5F1F4FCACFD1011296C7
:1002B0006C9170E080E090E020E13EE040E050E0B2
:1002C0005BD949015A01F101618170E080E090E061
:1002D0002CE330E040E050E04FD929833A834B8350
:1002E0005C8389819A81AB81BC81880E991EAA1E8C
:1002F000BB1ED1018C91880E911CA11CB11C1496BF
:100300006C9170E061507109882777FD8095982F76
:1003100020E831E541E050E02FD929833A834B832F
:100320005C836D837E838F83988789819A81AB817B
:10033000BC81880E991EAA1EBB1E840C951CA61C8F
:10034000B71CC501B40128960FB6F894DEBF0FBEE6
:10035000CDBFDF91CF911F910F91FF90EF90DF9074
:10036000CF90BF90AF909F908F907F906F905F9055
:100370004F903F902F9008950F931F93609320010B
:1003800070932101809322019093230100916700D3
:10039000109168002091690030916A00060F171FC4
:1003A000281F391F009318011093190120931A0177
:1003B00030931B0182E090E0909317018093160127
:1003C000A5D560931C0170931D0180931E0190932D
:1003D0001F011F910F910895CF92DF92EF92FF922C
:1003E0000F931F9393D5C0901C01D0901D01E090F6
:1003F0001E01F0901F016C197D098E099F09009163
:100400002001109121012091220130912301683EA9
:10041000734081059105D8F00F5F1F4F2F4F3F4F5D
:100420000093200110932101209322013093230196
:1004300048EEC40E43E0D41EE11CF11CC0921C0126
:10044000D0921D01E0921E01F0921F01CBCF80914E
:10045000180190911901A0911A01B0911B01081780
:1004600019072A073B07C0F1E0911401F09115012B
:10047000309791F10995611571058105910511F08C
:100480007BDF2AC08091670090916800A09169008D
:10049000B0916A00409120015091210160912201A8
:1004A00070912301840F951FA61FB71F8093180119
:1004B00090931901A0931A01B0931B0181E090E081
:1004C0002091160130911701232B11F480E090E068
:1004D0009093170180931601609120017091210182
:1004E00080912201909123011F910F91FF90EF9035
:1004F000DF90CF900895EF92FF920F9394E6E91664
:10050000F1042CF092EBE91A97E0F90A03C09EE19E
:10051000E90EF11CE0922A010093290120932801A1
:1005200080932601609325014093240184E291E0A9
:1005300020DE0F91FF90EF901FCFFC018285807C21
:100540008287168217821086118612821382148285
:1005500015821182108208954F925F926F927F925E
:100560008F929F92AF92BF92CF92DF92EF92FF92C3
:100570000F931F93CF93DF93CDB7DEB72C970FB6B2
:10058000F894DEBF0FBECDBF8C01FC018281938148
:10059000A481B581892B8A2B8B2B09F475C18285A7
:1005A00084FF72C119DF69877A878B879C87D8019E
:1005B0001A963C911A97232F2F708EE0820F8F701E
:1005C000833008F04BC116968D919D910D90BC9192
:1005D000A02D49855A856B857C85481759076A0780
:1005E0007B0708F43BC1223051F4F80182819381EA
:1005F000A481B58186839783A087B1872FC12330DB
:1006000009F063C0D8011296CD90DD90ED90FC907A
:100610001597E2DE20E8822E21E5922EAA24A394EB
:10062000B12CA501940184D7CA01B90120E831E5B4
:1006300041E050E0A1D729833A834B835C836D83EB
:100640007E838F83988789819A81AB81BC818C0D51
:100650009D1DAE1DBF1DF801C280D380E480F580D2
:1006600029853A854B855C85281739074A075B073A
:10067000B8F0CA01B901A50194015AD72F5F3F4FC5
:100680004F4F5F4FCA01B90120E831E541E050E02A
:1006900073D729013A01C40CD51CE61CF71CA4C071
:1006A00069857A858B859C85A501940141D7CA010E
:1006B000B90120E831E541E050E05ED729013A0177
:1006C000C40CD51CE61CF71CBEC0243009F0C1C008
:1006D000D80112964D905D906D907C9015977CDEC0
:1006E0006B017C0179DE4B015C0176DE69837A83E4
:1006F0008B839C83C40CD51CE61CF71C80E8482E19
:1007000081E5582E66246394712CC501B401A301C0
:1007100092010ED7C61AD70AE80AF90A69817A81C6
:100720008B819C81A301920103D72C5F3F4F4F4FD8
:100730005F4F97E0892E912CA12CB12CCA01B901F1
:10074000A5019401F5D620E831E541E050E014D749
:1007500029833A834B835C836D837E838F83988761
:1007600029813A814B815C81C21AD30AE40AF50AD5
:10077000F80182819381A481B58129853A854B85D1
:100780005C852C153D054E055F05B0F16C017D01C2
:1007900030E8C30E3AE3D31E39E0E31EF11C49856D
:1007A0005A856B857C85C40ED51EE61EF71ECB01CF
:1007B000BA01A3019201BCD6C61AD70AE80AF90AFF
:1007C000CA01B9016C5F7F4F8F4F9F4FA501940104
:1007D000AFD620E831E541E050E0CED629013A011C
:1007E000C418D508E608F708D8011696CD92DD9210
:1007F000ED92FC92199732C0C984DA84EB84FC84B0
:10080000C80ED91EEA1EFB1E69857A858B859C85DC
:10081000A30192018DD6C61AD70AE80AF90ACA01BD
:10082000B9016C5F7F4F8F4F9F4FA501940180D618
:1008300020E831E541E050E09FD629013A01C41893
:10084000D508E608F708F801C682D782E086F18667
:1008500005C0832F8F7ED8011A968C93F80182856C
:100860008F708130C1F482819381A481B581298503
:100870003A854B855C85820F931FA41FB51F868325
:100880009783A087B18707C0D8011A968C911A97D1
:100890008F7E1A968C932C960FB6F894DEBF0FBEFF
:1008A000CDBFDF91CF911F910F91FF90EF90DF901F
:1008B000CF90BF90AF909F908F907F906F905F9000
:1008C0004F9008959C01663060F4862F90E06BE0B5
:1008D00070E00AD6820F931FFC0192859F7081E021
:1008E00009F480E008951F93CF93DF93EC01162F56
:1008F000E9DF882331F1212F30E0C9016BE070E09E
:10090000F3D5FE01E80FF91F42815381648175819F
:10091000452B462B472B29F041E080819181892B83
:1009200009F440E0C9016BE070E0DED58C0F9D1F3B
:10093000FC01228540FB24F92287DF91CF911F9192
:100940000BCEDF91CF911F9108951F93CF93DF932B
:10095000EC01162FB7DF882351F0812F90E06BE078
:1009600070E0C2D5C80FD91F8A858F7E8A87DF9134
:10097000CF911F9108951F93CF93DF93EC01162F12
:10098000A1DF8823A9F0812F90E06BE070E0ACD567
:10099000FE01E80FF91F8285807E82871182108216
:1009A0001282138214821582168217821086118693
:1009B000DF91CF911F910895EF92FF920F931F93B4
:1009C000CF93DF938C01EC017C0182E4E80EF11CF3
:1009D000CE01B3DD2B96CE15DF05D1F71882C0E02E
:1009E0006C2FC801C8DFCF5FC630D1F7DF91CF9140
:1009F0001F910F91FF90EF900895BF92CF92DF92D9
:100A0000EF92FF920F931F93CF93DF93EC016C0152
:100A100082E4C80ED11CF601808181114AC081E0B8
:100A200080837E01F3E4EF0EF11CF7011082F701E1
:100A30008081863098F590E06BE070E055D58C0FA2
:100A40009D1FFC01828584FF24C0C6DC8B019C01B4
:100A5000F701B080AB2DB0E0CD016BE070E044D584
:100A6000FE01E80FF91F46815781608571850417E3
:100A700015072607370768F000811181828585FFF9
:100A800010C06B2DCE0177DF0115110511F0F801B3
:100A90000995F70180818F5F8083C9CFF6011082AD
:100AA00008C0CD016BE070E01FD58C0F9D1F54DD99
:100AB000EBCFDF91CF911F910F91FF90EF90DF90DF
:100AC000CF90BF9008958F929F92AF92BF92CF9296
:100AD000DF92EF92FF92CF93DF93EC016A017B01EB
:100AE00015D24B015C0112D2681979098A099B0958
:100AF000C616D706E806F90618F0CE017EDFF3CF5A
:100B0000DF91CF91FF90EF90DF90CF90BF90AF90AB
:100B10009F908F9008954F925F926F927F928F92E5
:100B20009F92AF92BF92CF92EF92FF920F93CF938B
:100B3000DF93EC014A015B013901C701029703977A
:100B400030F44ADC6115724E8F4D9140A8F0412C73
:100B5000512CC2016BE070E0C7D4FE01E80FF91F11
:100B6000DF011A9622852F7049F08FEF481A580A34
:100B700026E04216510469F78FEF19C07182608236
:100B80002C9100FB25F93E2D3F70207F232B2C93C9
:100B9000FC01EC0FFD1F82829382A482B582642D3A
:100BA000CE01CC2011F09FDE01C0CFDE842DDF917D
:100BB000CF910F91FF90EF90CF90BF90AF909F900B
:100BC0008F907F906F905F904F9008954F925F92BB
:100BD0006F927F928F929F92AF92BF92CF92EF923D
:100BE000FF920F931F93CF93DF93CDB7DEB7289774
:100BF0000FB6F894DEBF0FBECDBF2C017B014901BB
:100C00003801BA01882777FD8095982F2CE330E0D2
:100C100040E050E0B1D429833A834B835C83AA241B
:100C200097FCA094BA2C89819A81AB81BC81880EF3
:100C3000991EAA1EBB1EB701882777FD8095982FA5
:100C400020E13EE040E050E097D429833A834B8393
:100C50005C836D837E838F83988789819A81AB8142
:100C6000BC81880E991EAA1EBB1ECC24C39483E0AF
:100C7000E82EF12C00E09301B501A401C2014BDF85
:100C800028960FB6F894DEBF0FBECDBFDF91CF918F
:100C90001F910F91FF90EF90CF90BF90AF909F90DA
:100CA0008F907F906F905F904F9008958BE291E0CE
:100CB00083CE0F931F93CF93DF93EC01662351F004
:100CC00025D169837A838B839C83DF91CF911F9198
:100CD0000F9108951BD109811A812B813C81601BE2
:100CE000710B820B930B623371058105910540F7FF
:100CF00063E070E080E090E039D1ECCF60E0D9CFE4
:100D0000FC0113AA14AA15AA16AA11821282138230
:100D10001482411551056105710519F0CB01BA0125
:100D200025C10895FB01DC01D2967C936E93D19787
:100D30002115B2EC3B07B1E04B075105E9F0211555
:100D400086E938074105510549F487EB91E0938323
:100D50008283E091B701F091B80116C02038354286
:100D60004105510549F489EB91E093838283E09139
:100D7000B901F091BA0108C085EB91E093838283B9
:100D8000E091B501F091B6010190F081E02D099458
:100D90001F93CF93DF93EC01162F69E870E089A9C8
:100DA0009AA9F6D140E050E0612F89A99AA994D27E
:100DB00060E970E089A99AA9EBD162E370E080E074
:100DC00090E0DF91CF911F91D1C01F93CF93DF931C
:100DD000EC01162F8D81882381F189A99AA9DC0164
:100DE000ED91FC910680F781E02D0995892BA9F3FF
:100DF00007C02637310511F12835310509F41D8268
:100E000089A99AA9DC01ED91FC910680F781E02D7A
:100E10000995181619068CF489A99AA9DC01ED9197
:100E2000FC910084F185E02D09959C013327233640
:100E30003105F9F6612FCE01ABDF83E6DF91CF916B
:100E40001F9108950F931F93CF93DF931F92CDB7F8
:100E5000DEB78C01662341F081E0F801858360E014
:100E6000C8014983B2DF4981F80145830F90DF91C2
:100E7000CF911F910F9108951F920F920FB60F926D
:100E800011242F933F938F939F93AF93BF938091A0
:100E9000A7019091A801A091A901B091AA01309158
:100EA000A60126E0230F2D3730F029E8230F039603
:100EB000A11DB11D03C00296A11DB11D2093A60165
:100EC0008093A7019093A801A093A901B093AA01D0
:100ED0008091AB019091AC01A091AD01B091AE01B8
:100EE0000196A11DB11D8093AB019093AC01A0931D
:100EF000AD01B093AE01BF91AF919F918F913F91A2
:100F00002F910F900FBE0F901F9018952FB7F89448
:100F10006091A7017091A8018091A9019091AA0107
:100F20002FBF08953FB7F8948091AB019091AC0129
:100F3000A091AD01B091AE012FB508B602FE05C07B
:100F40002F3F19F00196A11DB11D3FBF6627782FD5
:100F5000892F9A2F620F711D811D911D43E0660F2D
:100F6000771F881F991F4A95D1F70895CF92DF9276
:100F7000EF92FF92CF93DF936B017C01D3DFEB0104
:100F8000C114D104E104F10471F0CCDF6C1B7D0BC2
:100F9000683E7340A8F381E0C81AD108E108F1085F
:100FA000C851DC4FEDCFDF91CF91FF90EF90DF90F4
:100FB000CF900895789480B7806880BF80B78064B0
:100FC00080BF8CB580648CBD8FEF8DBD80B7807F76
:100FD000846080BF89B7846089BF86B1887F836061
:100FE00086B9379A0895CF93DF93C82FD0E0FE01DA
:100FF000E25EFF4F8491FE01EC5DFF4FC491CC2374
:1010000039F1D0E0FE01E25DFF4FA491B0E0FE01B6
:10101000E45DFF4FC491D0E02FB7611108C0F89490
:101020009C91809598239C93988198230AC0623064
:1010300051F4F8949C91382F309593239C93988188
:10104000982B988304C0F8949C91982B9C932FBF65
:10105000DF91CF910895A82FB0E0FD01E25EFF4F30
:101060009491FD01EC5DFF4FE491EE2311F18111AC
:1010700003C08AB58F7304C0813021F48AB58F7C98
:101080008ABD05C0843019F48CB58F7C8CBDF0E02E
:10109000E45DFF4FA491B0E02FB7611105C0F89453
:1010A0008C919095892303C0F8948C91892B8C9313
:1010B0002FBF0895282F30E0F901E25EFF4F949191
:1010C000F901EC5DFF4FE491EE23E1F0811103C0E3
:1010D0008AB58F7304C0813021F48AB58F7C8ABDB4
:1010E00005C0843019F48CB58F7C8CBDF0E0E65DD2
:1010F000FF4FE491F0E02081292381E090E021F48A
:1011000080E0089580E090E0089554DFC3D71CD8B4
:10111000FECF0F931F93CF93DF93EC018B01F80168
:1011200061918F01662341F0E881F9810190F0819E
:10113000E02DCE010995F3CFDF91CF911F910F9153
:101140000895EF92FF920F931F93CF93DF937C014B
:101150008A01EB01060F171FC017D10751F06991E3
:10116000D701ED91FC910190F081E02DC701099527
:10117000F3CFDF91CF911F910F91FF90EF900895E2
:10118000DC01ED91FC910190F081E02D642F099438
:10119000DC01ED91FC910280F381E02D09944F92E6
:1011A0005F926F927F928F929F92AF92BF92CF92F7
:1011B000DF92EF92FF920F931F93CF93DF93CDB700
:1011C000DEB7A0970FB6F894DEBF0FBECDBF5C01AF
:1011D0004115510561057105D9F440E350E060E027
:1011E00070E0A0960FB6F894DEBF0FBECDBFDF91C2
:1011F000CF911F910F91FF90EF90DF90CF90BF9014
:10120000AF909F908F907F906F905F904F90B8CFEE
:101210008E010F5F1F4FC12CD12C76014801422E49
:10122000512C612C712C8FEFC81AD80AE80AF80AE1
:10123000CB01BA01A30192017BD1CA01F8016193EC
:101240008F01A901BC01411551056105710559F7CF
:10125000F1E0CF1AD108E108F108F401EC0DFD1D11
:1012600080818A3010F440E301C047E3480F5527DE
:1012700047FD5095652F752FC50182DF81E0C81AA3
:10128000D108E108F108EFEFCE16DE06EE06FE0605
:1012900021F7A0960FB6F894DEBF0FBECDBFDF9149
:1012A000CF911F910F91FF90EF90DF90CF90BF9063
:1012B000AF909F908F907F906F905F904F90089528
:1012C0002115310541F4DC01ED91FC910190F08193
:1012D000E02D642F099463CF9A01462F50E060E01F
:1012E00070E0EECF0895089580E090E008958FEFCC
:1012F0009FEF08958FEF9FEF08950895DC011296F8
:101300008D919C911397DC01ED91FC910280F3810A
:10131000E02D099581E090E00895E3EBF1E085EEA2
:1013200090E0918380838DEE90E09093B001809364
:10133000AF01F093B201E093B1010895BB9AC39A53
:101340000895F894C398679500000000000000001D
:1013500018F00000C39803C0C39A0000000067950E
:10136000000018F00000C39803C0C39A00000000FA
:1013700067950000000018F00000C39803C0C39AEE
:101380000000000067950000000018F00000C398FE
:1013900003C0C39A000000006795000018F0000029
:1013A000C39803C0C39A00000000679500000000C6
:1013B00018F00000C39803C0C39A000000006795AE
:1013C0000000000018F00000C39803C0C39A00009A
:1013D00000006795000018F00000C39803C0C39A8E
:1013E0000000000000000000000000000000C39AA0
:1013F00000000000000000000000000000007894E1
:1014000008958FEF90E09093B6018093B501089511
:10141000BB9AC39A0895862F880F8E7162956F705C
:10142000606122E095E050E0F89407C00000000001
:1014300000000000000000000000879510F0C39835
:1014400002C0C39A0000579510F40000000042E06B
:101450004A95F1F700009A9549F700002A9521F086
:1014600095E0862F50E0E9CF7894089587E091E0E9
:101470009093B8018093B7010895BB9AC39A0895D9
:10148000862F880F8E7162956F70606122E095E003
:1014900054E0F89407C000000000000000000000C5
:1014A00000000000879510F0C39802C0C39A0000A6
:1014B000579510F4000000004CE14A95F1F7000048
:1014C000000000009A9539F700002A9521F095E078
:1014D000862F52E0E7CF789408958FE091E09093C3
:1014E000BA018093B90108950024552704C0080E5D
:1014F000591F880F991F009729F076956795B8F3C3
:101500007105B9F7802D952F089597FB072E16F4D6
:10151000009406D077FD08D081D007FC05D03EF4BA
:10152000909581959F4F0895709561957F4F08958F
:10153000A1E21A2EAA1BBB1BFD010DC0AA1FBB1FD7
:10154000EE1FFF1FA217B307E407F50720F0A21B49
:10155000B30BE40BF50B661F771F881F991F1A94B6
:1015600069F760957095809590959B01AC01BD01E0
:10157000CF01089568940013E894A0E0B0E0E2EC95
:10158000FAE01DC0EFEFE7F959016A015E23550F3C
:10159000EE08FE2C87019B01AC019E23990F660B80
:1015A000762FCB0155D0CDB7DEB7EAE024C02F921D
:1015B0003F924F925F926F927F928F929F92AF92E3
:1015C000BF92CF92DF92EF92FF920F931F93CF9330
:1015D000DF93CDB7DEB7CA1BDB0B0FB6F894DEBFC7
:1015E0000FBECDBF09942A88398848885F846E84ED
:1015F0007D848C849B84AA84B984C884DF80EE8037
:10160000FD800C811B81AA81B981CE0FD11D0FB63F
:10161000F894DEBF0FBECDBFED010895AA1BBB1B22
:1016200051E107C0AA1FBB1FA617B70710F0A61BE2
:10163000B70B881F991F5A95A9F780959095BC0103
:10164000CD010895EE0FFF1F0590F491E02D099450
:10165000DF93CF939F92A0E49A2E0024D001E00163
:10166000F00116950795F794E794D794C794B7942B
:10167000A79448F41068A20FB31FC41FD51FE61F1C
:10168000F71F081E191E220F331F441F551F661F08
:10169000771F881F991F9A9421F79D01AE01BF0102
:1016A000C00111249F90CF91DF910895F894FFCF4E
:1016B0000000BB018000012C010000564D44505633
:1016C0005F317C315F564D4450560D0A001F1C1F80
:1016D0001E1F1E1F1F1E1F1E1F564D4450435F001E
:1016E0005F564D4450430D0A004572726F723A20A6
:1016F000417474656D707420746F2073657420611B
:1017000020726561642D6F6E6C79207661726961FB
:10171000626C65206F7220646174612074797065F9
:10172000206E6F7420737570706F727465640D0A2B
:10173000000000000072097309000000007E0989A2
:1017400008A10874097A0977097D09000000009E44
:1017500009A10900000000080A0B0A000000003D72
:041760000A400A0031
:00000001FF
